{
  "_format": "hh-sol-artifact-1",
  "contractName": "HoodyNFT",
  "sourceName": "contracts/HoodyNFT.sol",
  "abi": [
    {
      "inputs": [
        {
          "internalType": "string",
          "name": "_initBaseURI",
          "type": "string"
        }
      ],
      "stateMutability": "nonpayable",
      "type": "constructor"
    },
    {
      "inputs": [],
      "name": "ApprovalCallerNotOwnerNorApproved",
      "type": "error"
    },
    {
      "inputs": [],
      "name": "ApprovalQueryForNonexistentToken",
      "type": "error"
    },
    {
      "inputs": [],
      "name": "BalanceQueryForZeroAddress",
      "type": "error"
    },
    {
      "inputs": [],
      "name": "MintERC2309QuantityExceedsLimit",
      "type": "error"
    },
    {
      "inputs": [],
      "name": "MintToZeroAddress",
      "type": "error"
    },
    {
      "inputs": [],
      "name": "MintZeroQuantity",
      "type": "error"
    },
    {
      "inputs": [],
      "name": "NotCompatibleWithSpotMints",
      "type": "error"
    },
    {
      "inputs": [],
      "name": "OwnerQueryForNonexistentToken",
      "type": "error"
    },
    {
      "inputs": [],
      "name": "OwnershipNotInitializedForExtraData",
      "type": "error"
    },
    {
      "inputs": [],
      "name": "SequentialMintExceedsLimit",
      "type": "error"
    },
    {
      "inputs": [],
      "name": "SequentialUpToTooSmall",
      "type": "error"
    },
    {
      "inputs": [],
      "name": "SpotMintTokenIdTooSmall",
      "type": "error"
    },
    {
      "inputs": [],
      "name": "TokenAlreadyExists",
      "type": "error"
    },
    {
      "inputs": [],
      "name": "TokenIdsNotStrictlyAscending",
      "type": "error"
    },
    {
      "inputs": [],
      "name": "TransferCallerNotOwnerNorApproved",
      "type": "error"
    },
    {
      "inputs": [],
      "name": "TransferFromIncorrectOwner",
      "type": "error"
    },
    {
      "inputs": [],
      "name": "TransferToNonERC721ReceiverImplementer",
      "type": "error"
    },
    {
      "inputs": [],
      "name": "TransferToZeroAddress",
      "type": "error"
    },
    {
      "inputs": [],
      "name": "URIQueryForNonexistentToken",
      "type": "error"
    },
    {
      "anonymous": false,
      "inputs": [
        {
          "indexed": true,
          "internalType": "address",
          "name": "owner",
          "type": "address"
        },
        {
          "indexed": true,
          "internalType": "address",
          "name": "approved",
          "type": "address"
        },
        {
          "indexed": true,
          "internalType": "uint256",
          "name": "tokenId",
          "type": "uint256"
        }
      ],
      "name": "Approval",
      "type": "event"
    },
    {
      "anonymous": false,
      "inputs": [
        {
          "indexed": true,
          "internalType": "address",
          "name": "owner",
          "type": "address"
        },
        {
          "indexed": true,
          "internalType": "address",
          "name": "operator",
          "type": "address"
        },
        {
          "indexed": false,
          "internalType": "bool",
          "name": "approved",
          "type": "bool"
        }
      ],
      "name": "ApprovalForAll",
      "type": "event"
    },
    {
      "anonymous": false,
      "inputs": [
        {
          "indexed": true,
          "internalType": "uint256",
          "name": "fromTokenId",
          "type": "uint256"
        },
        {
          "indexed": false,
          "internalType": "uint256",
          "name": "toTokenId",
          "type": "uint256"
        },
        {
          "indexed": true,
          "internalType": "address",
          "name": "from",
          "type": "address"
        },
        {
          "indexed": true,
          "internalType": "address",
          "name": "to",
          "type": "address"
        }
      ],
      "name": "ConsecutiveTransfer",
      "type": "event"
    },
    {
      "anonymous": false,
      "inputs": [
        {
          "indexed": true,
          "internalType": "address",
          "name": "from",
          "type": "address"
        },
        {
          "indexed": true,
          "internalType": "address",
          "name": "to",
          "type": "address"
        },
        {
          "indexed": true,
          "internalType": "uint256",
          "name": "tokenId",
          "type": "uint256"
        }
      ],
      "name": "Transfer",
      "type": "event"
    },
    {
      "inputs": [
        {
          "internalType": "address",
          "name": "to",
          "type": "address"
        },
        {
          "internalType": "uint256",
          "name": "tokenId",
          "type": "uint256"
        }
      ],
      "name": "approve",
      "outputs": [],
      "stateMutability": "payable",
      "type": "function"
    },
    {
      "inputs": [
        {
          "internalType": "address",
          "name": "owner",
          "type": "address"
        }
      ],
      "name": "balanceOf",
      "outputs": [
        {
          "internalType": "uint256",
          "name": "",
          "type": "uint256"
        }
      ],
      "stateMutability": "view",
      "type": "function"
    },
    {
      "inputs": [],
      "name": "baseURI",
      "outputs": [
        {
          "internalType": "string",
          "name": "",
          "type": "string"
        }
      ],
      "stateMutability": "view",
      "type": "function"
    },
    {
      "inputs": [],
      "name": "cost",
      "outputs": [
        {
          "internalType": "uint256",
          "name": "",
          "type": "uint256"
        }
      ],
      "stateMutability": "view",
      "type": "function"
    },
    {
      "inputs": [
        {
          "internalType": "uint256",
          "name": "tokenId",
          "type": "uint256"
        }
      ],
      "name": "getApproved",
      "outputs": [
        {
          "internalType": "address",
          "name": "",
          "type": "address"
        }
      ],
      "stateMutability": "view",
      "type": "function"
    },
    {
      "inputs": [
        {
          "internalType": "address",
          "name": "owner",
          "type": "address"
        },
        {
          "internalType": "address",
          "name": "operator",
          "type": "address"
        }
      ],
      "name": "isApprovedForAll",
      "outputs": [
        {
          "internalType": "bool",
          "name": "",
          "type": "bool"
        }
      ],
      "stateMutability": "view",
      "type": "function"
    },
    {
      "inputs": [],
      "name": "maxMintAmount",
      "outputs": [
        {
          "internalType": "uint256",
          "name": "",
          "type": "uint256"
        }
      ],
      "stateMutability": "view",
      "type": "function"
    },
    {
      "inputs": [],
      "name": "maxSupply",
      "outputs": [
        {
          "internalType": "uint256",
          "name": "",
          "type": "uint256"
        }
      ],
      "stateMutability": "view",
      "type": "function"
    },
    {
      "inputs": [
        {
          "internalType": "uint256",
          "name": "_mintAmount",
          "type": "uint256"
        }
      ],
      "name": "mint",
      "outputs": [],
      "stateMutability": "payable",
      "type": "function"
    },
    {
      "inputs": [],
      "name": "name",
      "outputs": [
        {
          "internalType": "string",
          "name": "",
          "type": "string"
        }
      ],
      "stateMutability": "view",
      "type": "function"
    },
    {
      "inputs": [
        {
          "internalType": "uint256",
          "name": "tokenId",
          "type": "uint256"
        }
      ],
      "name": "ownerOf",
      "outputs": [
        {
          "internalType": "address",
          "name": "",
          "type": "address"
        }
      ],
      "stateMutability": "view",
      "type": "function"
    },
    {
      "inputs": [
        {
          "internalType": "address",
          "name": "from",
          "type": "address"
        },
        {
          "internalType": "address",
          "name": "to",
          "type": "address"
        },
        {
          "internalType": "uint256",
          "name": "tokenId",
          "type": "uint256"
        }
      ],
      "name": "safeTransferFrom",
      "outputs": [],
      "stateMutability": "payable",
      "type": "function"
    },
    {
      "inputs": [
        {
          "internalType": "address",
          "name": "from",
          "type": "address"
        },
        {
          "internalType": "address",
          "name": "to",
          "type": "address"
        },
        {
          "internalType": "uint256",
          "name": "tokenId",
          "type": "uint256"
        },
        {
          "internalType": "bytes",
          "name": "_data",
          "type": "bytes"
        }
      ],
      "name": "safeTransferFrom",
      "outputs": [],
      "stateMutability": "payable",
      "type": "function"
    },
    {
      "inputs": [
        {
          "internalType": "address",
          "name": "operator",
          "type": "address"
        },
        {
          "internalType": "bool",
          "name": "approved",
          "type": "bool"
        }
      ],
      "name": "setApprovalForAll",
      "outputs": [],
      "stateMutability": "nonpayable",
      "type": "function"
    },
    {
      "inputs": [
        {
          "internalType": "string",
          "name": "_newBaseURI",
          "type": "string"
        }
      ],
      "name": "setBaseURI",
      "outputs": [],
      "stateMutability": "nonpayable",
      "type": "function"
    },
    {
      "inputs": [
        {
          "internalType": "bytes4",
          "name": "interfaceId",
          "type": "bytes4"
        }
      ],
      "name": "supportsInterface",
      "outputs": [
        {
          "internalType": "bool",
          "name": "",
          "type": "bool"
        }
      ],
      "stateMutability": "view",
      "type": "function"
    },
    {
      "inputs": [],
      "name": "symbol",
      "outputs": [
        {
          "internalType": "string",
          "name": "",
          "type": "string"
        }
      ],
      "stateMutability": "view",
      "type": "function"
    },
    {
      "inputs": [
        {
          "internalType": "uint256",
          "name": "tokenId",
          "type": "uint256"
        }
      ],
      "name": "tokenURI",
      "outputs": [
        {
          "internalType": "string",
          "name": "",
          "type": "string"
        }
      ],
      "stateMutability": "view",
      "type": "function"
    },
    {
      "inputs": [],
      "name": "totalSupply",
      "outputs": [
        {
          "internalType": "uint256",
          "name": "result",
          "type": "uint256"
        }
      ],
      "stateMutability": "view",
      "type": "function"
    },
    {
      "inputs": [
        {
          "internalType": "address",
          "name": "from",
          "type": "address"
        },
        {
          "internalType": "address",
          "name": "to",
          "type": "address"
        },
        {
          "internalType": "uint256",
          "name": "tokenId",
          "type": "uint256"
        }
      ],
      "name": "transferFrom",
      "outputs": [],
      "stateMutability": "payable",
      "type": "function"
    },
    {
      "inputs": [],
      "name": "withdraw",
      "outputs": [],
      "stateMutability": "nonpayable",
      "type": "function"
    }
  ],
  "bytecode": "0x6080604052662386f26fc10000600a556103e8600b556014600c553480156200002757600080fd5b5060405162002b9838038062002b9883398181016040528101906200004d919062000318565b6040518060400160405280600881526020017f486f6f64794e46540000000000000000000000000000000000000000000000008152506040518060400160405280600381526020017f4e465400000000000000000000000000000000000000000000000000000000008152508160029081620000ca9190620005b4565b508060039081620000dc9190620005b4565b50620000ed6200014e60201b60201c565b600081905550620001036200014e60201b60201c565b620001136200015360201b60201c565b101562000133576200013263fed8210f60e01b6200017b60201b60201c565b5b50508060099081620001469190620005b4565b50506200069b565b600090565b60007fffffffffffffffffffffffffffffffffffffffffffffffffffffffffffffffff905090565b8060005260046000fd5b6000604051905090565b600080fd5b600080fd5b600080fd5b600080fd5b6000601f19601f8301169050919050565b7f4e487b7100000000000000000000000000000000000000000000000000000000600052604160045260246000fd5b620001ee82620001a3565b810181811067ffffffffffffffff8211171562000210576200020f620001b4565b5b80604052505050565b60006200022562000185565b9050620002338282620001e3565b919050565b600067ffffffffffffffff821115620002565762000255620001b4565b5b6200026182620001a3565b9050602081019050919050565b60005b838110156200028e57808201518184015260208101905062000271565b60008484015250505050565b6000620002b1620002ab8462000238565b62000219565b905082815260208101848484011115620002d057620002cf6200019e565b5b620002dd8482856200026e565b509392505050565b600082601f830112620002fd57620002fc62000199565b5b81516200030f8482602086016200029a565b91505092915050565b6000602082840312156200033157620003306200018f565b5b600082015167ffffffffffffffff81111562000352576200035162000194565b5b6200036084828501620002e5565b91505092915050565b600081519050919050565b7f4e487b7100000000000000000000000000000000000000000000000000000000600052602260045260246000fd5b60006002820490506001821680620003bc57607f821691505b602082108103620003d257620003d162000374565b5b50919050565b60008190508160005260206000209050919050565b60006020601f8301049050919050565b600082821b905092915050565b6000600883026200043c7fffffffffffffffffffffffffffffffffffffffffffffffffffffffffffffffff82620003fd565b620004488683620003fd565b95508019841693508086168417925050509392505050565b6000819050919050565b6000819050919050565b6000620004956200048f620004898462000460565b6200046a565b62000460565b9050919050565b6000819050919050565b620004b18362000474565b620004c9620004c0826200049c565b8484546200040a565b825550505050565b600090565b620004e0620004d1565b620004ed818484620004a6565b505050565b5b81811015620005155762000509600082620004d6565b600181019050620004f3565b5050565b601f82111562000564576200052e81620003d8565b6200053984620003ed565b8101602085101562000549578190505b620005616200055885620003ed565b830182620004f2565b50505b505050565b600082821c905092915050565b6000620005896000198460080262000569565b1980831691505092915050565b6000620005a4838362000576565b9150826002028217905092915050565b620005bf8262000369565b67ffffffffffffffff811115620005db57620005da620001b4565b5b620005e78254620003a3565b620005f482828562000519565b600060209050601f8311600181146200062c576000841562000617578287015190505b62000623858262000596565b86555062000693565b601f1984166200063c86620003d8565b60005b8281101562000666578489015182556001820191506020850194506020810190506200063f565b8683101562000686578489015162000682601f89168262000576565b8355505b6001600288020188555050505b505050505050565b6124ed80620006ab6000396000f3fe60806040526004361061012a5760003560e01c806355f804b3116100ab578063a0712d681161006f578063a0712d68146103b9578063a22cb465146103d5578063b88d4fde146103fe578063c87b56dd1461041a578063d5abeb0114610457578063e985e9c5146104825761012a565b806355f804b3146102c05780636352211e146102e95780636c0360eb1461032657806370a082311461035157806395d89b411461038e5761012a565b806318160ddd116100f257806318160ddd1461021b578063239c70ae1461024657806323b872dd146102715780633ccfd60b1461028d57806342842e0e146102a45761012a565b806301ffc9a71461012f57806306fdde031461016c578063081812fc14610197578063095ea7b3146101d457806313faede6146101f0575b600080fd5b34801561013b57600080fd5b50610156600480360381019061015191906117e0565b6104bf565b6040516101639190611828565b60405180910390f35b34801561017857600080fd5b50610181610551565b60405161018e91906118d3565b60405180910390f35b3480156101a357600080fd5b506101be60048036038101906101b9919061192b565b6105e3565b6040516101cb9190611999565b60405180910390f35b6101ee60048036038101906101e991906119e0565b610641565b005b3480156101fc57600080fd5b50610205610651565b6040516102129190611a2f565b60405180910390f35b34801561022757600080fd5b50610230610657565b60405161023d9190611a2f565b60405180910390f35b34801561025257600080fd5b5061025b6106a4565b6040516102689190611a2f565b60405180910390f35b61028b60048036038101906102869190611a4a565b6106aa565b005b34801561029957600080fd5b506102a2610942565b005b6102be60048036038101906102b99190611a4a565b610982565b005b3480156102cc57600080fd5b506102e760048036038101906102e29190611bd2565b6109a2565b005b3480156102f557600080fd5b50610310600480360381019061030b919061192b565b6109b5565b60405161031d9190611999565b60405180910390f35b34801561033257600080fd5b5061033b6109c7565b60405161034891906118d3565b60405180910390f35b34801561035d57600080fd5b5061037860048036038101906103739190611c1b565b610a55565b6040516103859190611a2f565b60405180910390f35b34801561039a57600080fd5b506103a3610aec565b6040516103b091906118d3565b60405180910390f35b6103d360048036038101906103ce919061192b565b610b7e565b005b3480156103e157600080fd5b506103fc60048036038101906103f79190611c74565b610cc0565b005b61041860048036038101906104139190611d55565b610dcb565b005b34801561042657600080fd5b50610441600480360381019061043c919061192b565b610e1d565b60405161044e91906118d3565b60405180910390f35b34801561046357600080fd5b5061046c610e9a565b6040516104799190611a2f565b60405180910390f35b34801561048e57600080fd5b506104a960048036038101906104a49190611dd8565b610ea0565b6040516104b69190611828565b60405180910390f35b60006301ffc9a760e01b827bffffffffffffffffffffffffffffffffffffffffffffffffffffffff1916148061051a57506380ac58cd60e01b827bffffffffffffffffffffffffffffffffffffffffffffffffffffffff1916145b8061054a5750635b5e139f60e01b827bffffffffffffffffffffffffffffffffffffffffffffffffffffffff1916145b9050919050565b60606002805461056090611e47565b80601f016020809104026020016040519081016040528092919081815260200182805461058c90611e47565b80156105d95780601f106105ae576101008083540402835291602001916105d9565b820191906000526020600020905b8154815290600101906020018083116105bc57829003601f168201915b5050505050905090565b60006105ee82610f34565b6106035761060263cf4700e460e01b610fe0565b5b6006600083815260200190815260200160002060000160009054906101000a900473ffffffffffffffffffffffffffffffffffffffff169050919050565b61064d82826001610fea565b5050565b600a5481565b6000610661611119565b600154600054030390507fffffffffffffffffffffffffffffffffffffffffffffffffffffffffffffffff61069461111e565b146106a157600854810190505b90565b600c5481565b60006106b582611146565b905060008473ffffffffffffffffffffffffffffffffffffffff169050808273ffffffffffffffffffffffffffffffffffffffff1614610700576106ff63a114810060e01b610fe0565b5b60008061070c8561125f565b91509150610738818461071d611286565b73ffffffffffffffffffffffffffffffffffffffff1661128e565b6107635761074d87610748611286565b610ea0565b610762576107616359c896be60e01b610fe0565b5b5b61077087878760016112a0565b801561077b57600082555b600560008873ffffffffffffffffffffffffffffffffffffffff1673ffffffffffffffffffffffffffffffffffffffff168152602001908152602001600020600081546001900391905081905550600560008773ffffffffffffffffffffffffffffffffffffffff1673ffffffffffffffffffffffffffffffffffffffff1681526020019081526020016000206000815460010191905081905550610849866108258989886112a6565b7c0200000000000000000000000000000000000000000000000000000000176112ce565b600460008781526020019081526020016000208190555060007c02000000000000000000000000000000000000000000000000000000008516036108cf57600060018601905060006004600083815260200190815260200160002054036108cd5760005481146108cc578460046000838152602001908152602001600020819055505b5b505b60008673ffffffffffffffffffffffffffffffffffffffff1690508581857fddf252ad1be2c89b69c2b068fc378daa952ba7f163c4a11628f55a4df523b3ef600080a46000810361092b5761092a63ea553b3460e01b610fe0565b5b61093888888860016112f9565b5050505050505050565b3373ffffffffffffffffffffffffffffffffffffffff166108fc479081150290604051600060405180830381858888f1935050505061098057600080fd5b565b61099d83838360405180602001604052806000815250610dcb565b505050565b80600990816109b19190612024565b5050565b60006109c082611146565b9050919050565b600980546109d490611e47565b80601f0160208091040260200160405190810160405280929190818152602001828054610a0090611e47565b8015610a4d5780601f10610a2257610100808354040283529160200191610a4d565b820191906000526020600020905b815481529060010190602001808311610a3057829003601f168201915b505050505081565b60008073ffffffffffffffffffffffffffffffffffffffff168273ffffffffffffffffffffffffffffffffffffffff1603610a9b57610a9a638f4eb60460e01b610fe0565b5b67ffffffffffffffff600560008473ffffffffffffffffffffffffffffffffffffffff1673ffffffffffffffffffffffffffffffffffffffff16815260200190815260200160002054169050919050565b606060038054610afb90611e47565b80601f0160208091040260200160405190810160405280929190818152602001828054610b2790611e47565b8015610b745780601f10610b4957610100808354040283529160200191610b74565b820191906000526020600020905b815481529060010190602001808311610b5757829003601f168201915b5050505050905090565b6000610b88610657565b905060008211610bcd576040517f08c379a0000000000000000000000000000000000000000000000000000000008152600401610bc490612142565b60405180910390fd5b600c54821115610c12576040517f08c379a0000000000000000000000000000000000000000000000000000000008152600401610c09906121ae565b60405180910390fd5b600b548282610c2191906121fd565b1115610c62576040517f08c379a0000000000000000000000000000000000000000000000000000000008152600401610c599061227d565b60405180910390fd5b81600a54610c70919061229d565b341015610cb2576040517f08c379a0000000000000000000000000000000000000000000000000000000008152600401610ca99061232b565b60405180910390fd5b610cbc33836112ff565b5050565b8060076000610ccd611286565b73ffffffffffffffffffffffffffffffffffffffff1673ffffffffffffffffffffffffffffffffffffffff16815260200190815260200160002060008473ffffffffffffffffffffffffffffffffffffffff1673ffffffffffffffffffffffffffffffffffffffff16815260200190815260200160002060006101000a81548160ff0219169083151502179055508173ffffffffffffffffffffffffffffffffffffffff16610d7a611286565b73ffffffffffffffffffffffffffffffffffffffff167f17307eab39ab6107e8899845ad3d59bd9653f200f220920489ca2b5937696c3183604051610dbf9190611828565b60405180910390a35050565b610dd68484846106aa565b60008373ffffffffffffffffffffffffffffffffffffffff163b14610e1757610e018484848461131d565b610e1657610e1563d1a57ed660e01b610fe0565b5b5b50505050565b6060610e2882610f34565b610e3d57610e3c63a14c4b5060e01b610fe0565b5b6000610e4761144c565b90506000815103610e675760405180602001604052806000815250610e92565b80610e71846114de565b604051602001610e82929190612387565b6040516020818303038152906040525b915050919050565b600b5481565b6000600760008473ffffffffffffffffffffffffffffffffffffffff1673ffffffffffffffffffffffffffffffffffffffff16815260200190815260200160002060008373ffffffffffffffffffffffffffffffffffffffff1673ffffffffffffffffffffffffffffffffffffffff16815260200190815260200160002060009054906101000a900460ff16905092915050565b600081610f3f611119565b11610fda57610f4c61111e565b821115610f7657610f6f600460008481526020019081526020016000205461152e565b9050610fdb565b600054821015610fd95760005b6000600460008581526020019081526020016000205491508103610fb25782610fab906123ab565b9250610f83565b60007c01000000000000000000000000000000000000000000000000000000008216149150505b5b5b919050565b8060005260046000fd5b6000610ff5836109b5565b905081801561103757508073ffffffffffffffffffffffffffffffffffffffff1661101e611286565b73ffffffffffffffffffffffffffffffffffffffff1614155b156110635761104d81611048611286565b610ea0565b6110625761106163cfb3b94260e01b610fe0565b5b5b836006600085815260200190815260200160002060000160006101000a81548173ffffffffffffffffffffffffffffffffffffffff021916908373ffffffffffffffffffffffffffffffffffffffff160217905550828473ffffffffffffffffffffffffffffffffffffffff168273ffffffffffffffffffffffffffffffffffffffff167f8c5be1e5ebec7d5bd14f71427d1e84f3dd0314c0f7b2291e5b200ac8c7c3b92560405160405180910390a450505050565b600090565b60007fffffffffffffffffffffffffffffffffffffffffffffffffffffffffffffffff905090565b600081611151611119565b11611249576004600083815260200190815260200160002054905061117461111e565b821115611199576111848161152e565b61125a5761119863df2d9b4260e01b610fe0565b5b600081036112205760005482106111bb576111ba63df2d9b4260e01b610fe0565b5b5b6004600083600190039350838152602001908152602001600020549050600081031561121b5760007c01000000000000000000000000000000000000000000000000000000008216031561125a5761121a63df2d9b4260e01b610fe0565b5b6111bc565b60007c01000000000000000000000000000000000000000000000000000000008216031561125a575b61125963df2d9b4260e01b610fe0565b5b919050565b60008060006006600085815260200190815260200160002090508092508254915050915091565b600033905090565b60008382148383141790509392505050565b50505050565b60008060e883901c905060e86112bd86868461156f565b62ffffff16901b9150509392505050565b600073ffffffffffffffffffffffffffffffffffffffff83169250814260a01b178317905092915050565b50505050565b611319828260405180602001604052806000815250611578565b5050565b60008373ffffffffffffffffffffffffffffffffffffffff1663150b7a02611343611286565b8786866040518563ffffffff1660e01b81526004016113659493929190612429565b6020604051808303816000875af19250505080156113a157506040513d601f19601f8201168201806040525081019061139e919061248a565b60015b6113f9573d80600081146113d1576040519150601f19603f3d011682016040523d82523d6000602084013e6113d6565b606091505b5060008151036113f1576113f063d1a57ed660e01b610fe0565b5b805181602001fd5b63150b7a0260e01b7bffffffffffffffffffffffffffffffffffffffffffffffffffffffff1916817bffffffffffffffffffffffffffffffffffffffffffffffffffffffff191614915050949350505050565b60606009805461145b90611e47565b80601f016020809104026020016040519081016040528092919081815260200182805461148790611e47565b80156114d45780601f106114a9576101008083540402835291602001916114d4565b820191906000526020600020905b8154815290600101906020018083116114b757829003601f168201915b5050505050905090565b606060a060405101806040526020810391506000825281835b60011561151957600184039350600a81066030018453600a81049050806114f7575b50828103602084039350808452505050919050565b60007c0100000000000000000000000000000000000000000000000000000000821673ffffffffffffffffffffffffffffffffffffffff8316119050919050565b60009392505050565b61158283836115f4565b60008373ffffffffffffffffffffffffffffffffffffffff163b146115ef57600080549050600083820390505b6115c2600086838060010194508661131d565b6115d7576115d663d1a57ed660e01b610fe0565b5b8181106115af5781600054146115ec57600080fd5b50505b505050565b600080549050600082036116135761161263b562e8dd60e01b610fe0565b5b61162060008483856112a0565b6116408361163160008660006112a6565b61163a85611764565b176112ce565b6004600083815260200190815260200160002081905550600160406001901b178202600560008573ffffffffffffffffffffffffffffffffffffffff1673ffffffffffffffffffffffffffffffffffffffff1681526020019081526020016000206000828254019250508190555060008373ffffffffffffffffffffffffffffffffffffffff169050600081036116e2576116e1632e07630060e01b610fe0565b5b6000838301905060008390506116f661111e565b600183031115611711576117106381647e3a60e01b610fe0565b5b5b808360007fddf252ad1be2c89b69c2b068fc378daa952ba7f163c4a11628f55a4df523b3ef600080a4818160010191508103611712578160008190555050505061175f60008483856112f9565b505050565b60006001821460e11b9050919050565b6000604051905090565b600080fd5b600080fd5b60007fffffffff0000000000000000000000000000000000000000000000000000000082169050919050565b6117bd81611788565b81146117c857600080fd5b50565b6000813590506117da816117b4565b92915050565b6000602082840312156117f6576117f561177e565b5b6000611804848285016117cb565b91505092915050565b60008115159050919050565b6118228161180d565b82525050565b600060208201905061183d6000830184611819565b92915050565b600081519050919050565b600082825260208201905092915050565b60005b8381101561187d578082015181840152602081019050611862565b60008484015250505050565b6000601f19601f8301169050919050565b60006118a582611843565b6118af818561184e565b93506118bf81856020860161185f565b6118c881611889565b840191505092915050565b600060208201905081810360008301526118ed818461189a565b905092915050565b6000819050919050565b611908816118f5565b811461191357600080fd5b50565b600081359050611925816118ff565b92915050565b6000602082840312156119415761194061177e565b5b600061194f84828501611916565b91505092915050565b600073ffffffffffffffffffffffffffffffffffffffff82169050919050565b600061198382611958565b9050919050565b61199381611978565b82525050565b60006020820190506119ae600083018461198a565b92915050565b6119bd81611978565b81146119c857600080fd5b50565b6000813590506119da816119b4565b92915050565b600080604083850312156119f7576119f661177e565b5b6000611a05858286016119cb565b9250506020611a1685828601611916565b9150509250929050565b611a29816118f5565b82525050565b6000602082019050611a446000830184611a20565b92915050565b600080600060608486031215611a6357611a6261177e565b5b6000611a71868287016119cb565b9350506020611a82868287016119cb565b9250506040611a9386828701611916565b9150509250925092565b600080fd5b600080fd5b7f4e487b7100000000000000000000000000000000000000000000000000000000600052604160045260246000fd5b611adf82611889565b810181811067ffffffffffffffff82111715611afe57611afd611aa7565b5b80604052505050565b6000611b11611774565b9050611b1d8282611ad6565b919050565b600067ffffffffffffffff821115611b3d57611b3c611aa7565b5b611b4682611889565b9050602081019050919050565b82818337600083830152505050565b6000611b75611b7084611b22565b611b07565b905082815260208101848484011115611b9157611b90611aa2565b5b611b9c848285611b53565b509392505050565b600082601f830112611bb957611bb8611a9d565b5b8135611bc9848260208601611b62565b91505092915050565b600060208284031215611be857611be761177e565b5b600082013567ffffffffffffffff811115611c0657611c05611783565b5b611c1284828501611ba4565b91505092915050565b600060208284031215611c3157611c3061177e565b5b6000611c3f848285016119cb565b91505092915050565b611c518161180d565b8114611c5c57600080fd5b50565b600081359050611c6e81611c48565b92915050565b60008060408385031215611c8b57611c8a61177e565b5b6000611c99858286016119cb565b9250506020611caa85828601611c5f565b9150509250929050565b600067ffffffffffffffff821115611ccf57611cce611aa7565b5b611cd882611889565b9050602081019050919050565b6000611cf8611cf384611cb4565b611b07565b905082815260208101848484011115611d1457611d13611aa2565b5b611d1f848285611b53565b509392505050565b600082601f830112611d3c57611d3b611a9d565b5b8135611d4c848260208601611ce5565b91505092915050565b60008060008060808587031215611d6f57611d6e61177e565b5b6000611d7d878288016119cb565b9450506020611d8e878288016119cb565b9350506040611d9f87828801611916565b925050606085013567ffffffffffffffff811115611dc057611dbf611783565b5b611dcc87828801611d27565b91505092959194509250565b60008060408385031215611def57611dee61177e565b5b6000611dfd858286016119cb565b9250506020611e0e858286016119cb565b9150509250929050565b7f4e487b7100000000000000000000000000000000000000000000000000000000600052602260045260246000fd5b60006002820490506001821680611e5f57607f821691505b602082108103611e7257611e71611e18565b5b50919050565b60008190508160005260206000209050919050565b60006020601f8301049050919050565b600082821b905092915050565b600060088302611eda7fffffffffffffffffffffffffffffffffffffffffffffffffffffffffffffffff82611e9d565b611ee48683611e9d565b95508019841693508086168417925050509392505050565b6000819050919050565b6000611f21611f1c611f17846118f5565b611efc565b6118f5565b9050919050565b6000819050919050565b611f3b83611f06565b611f4f611f4782611f28565b848454611eaa565b825550505050565b600090565b611f64611f57565b611f6f818484611f32565b505050565b5b81811015611f9357611f88600082611f5c565b600181019050611f75565b5050565b601f821115611fd857611fa981611e78565b611fb284611e8d565b81016020851015611fc1578190505b611fd5611fcd85611e8d565b830182611f74565b50505b505050565b600082821c905092915050565b6000611ffb60001984600802611fdd565b1980831691505092915050565b60006120148383611fea565b9150826002028217905092915050565b61202d82611843565b67ffffffffffffffff81111561204657612045611aa7565b5b6120508254611e47565b61205b828285611f97565b600060209050601f83116001811461208e576000841561207c578287015190505b6120868582612008565b8655506120ee565b601f19841661209c86611e78565b60005b828110156120c45784890151825560018201915060208501945060208101905061209f565b868310156120e157848901516120dd601f891682611fea565b8355505b6001600288020188555050505b505050505050565b7f4d757374206d696e74206174206c656173742031204e46540000000000000000600082015250565b600061212c60188361184e565b9150612137826120f6565b602082019050919050565b6000602082019050818103600083015261215b8161211f565b9050919050565b7f45786365656473206d6178206d696e7420616d6f756e74000000000000000000600082015250565b600061219860178361184e565b91506121a382612162565b602082019050919050565b600060208201905081810360008301526121c78161218b565b9050919050565b7f4e487b7100000000000000000000000000000000000000000000000000000000600052601160045260246000fd5b6000612208826118f5565b9150612213836118f5565b925082820190508082111561222b5761222a6121ce565b5b92915050565b7f45786365656473206d617820737570706c790000000000000000000000000000600082015250565b600061226760128361184e565b915061227282612231565b602082019050919050565b600060208201905081810360008301526122968161225a565b9050919050565b60006122a8826118f5565b91506122b3836118f5565b92508282026122c1816118f5565b915082820484148315176122d8576122d76121ce565b5b5092915050565b7f4e6f7420656e6f75676820457468657200000000000000000000000000000000600082015250565b600061231560108361184e565b9150612320826122df565b602082019050919050565b6000602082019050818103600083015261234481612308565b9050919050565b600081905092915050565b600061236182611843565b61236b818561234b565b935061237b81856020860161185f565b80840191505092915050565b60006123938285612356565b915061239f8284612356565b91508190509392505050565b60006123b6826118f5565b9150600082036123c9576123c86121ce565b5b600182039050919050565b600081519050919050565b600082825260208201905092915050565b60006123fb826123d4565b61240581856123df565b935061241581856020860161185f565b61241e81611889565b840191505092915050565b600060808201905061243e600083018761198a565b61244b602083018661198a565b6124586040830185611a20565b818103606083015261246a81846123f0565b905095945050505050565b600081519050612484816117b4565b92915050565b6000602082840312156124a05761249f61177e565b5b60006124ae84828501612475565b9150509291505056fea2646970667358221220e966b2ba02c3c869e5ba540491abe2d2833a19a3386455e66a49a853e3ee0afc64736f6c63430008120033",
  "linkReferences": {},
  "deployedLinkReferences": {}
}